{
  "address": "0xCab2e8D01C17530F1dD83B1681AF3691560c876c",
  "abi": [
    {
      "inputs": [
        {
          "internalType": "address",
          "name": "authedSigner_",
          "type": "address"
        }
      ],
      "stateMutability": "nonpayable",
      "type": "constructor"
    },
    {
      "anonymous": false,
      "inputs": [
        {
          "indexed": true,
          "internalType": "address",
          "name": "previousOwner",
          "type": "address"
        },
        {
          "indexed": true,
          "internalType": "address",
          "name": "newOwner",
          "type": "address"
        }
      ],
      "name": "OwnershipTransferred",
      "type": "event"
    },
    {
      "anonymous": false,
      "inputs": [
        {
          "indexed": true,
          "internalType": "uint256",
          "name": "billId",
          "type": "uint256"
        },
        {
          "indexed": true,
          "internalType": "address",
          "name": "token",
          "type": "address"
        },
        {
          "indexed": false,
          "internalType": "uint256",
          "name": "payment",
          "type": "uint256"
        }
      ],
      "name": "PurchaseItems",
      "type": "event"
    },
    {
      "stateMutability": "payable",
      "type": "fallback"
    },
    {
      "inputs": [],
      "name": "authedSigner",
      "outputs": [
        {
          "internalType": "address",
          "name": "",
          "type": "address"
        }
      ],
      "stateMutability": "view",
      "type": "function"
    },
    {
      "inputs": [
        {
          "internalType": "address",
          "name": "",
          "type": "address"
        },
        {
          "internalType": "uint256",
          "name": "",
          "type": "uint256"
        }
      ],
      "name": "nonce",
      "outputs": [
        {
          "internalType": "bool",
          "name": "",
          "type": "bool"
        }
      ],
      "stateMutability": "view",
      "type": "function"
    },
    {
      "inputs": [],
      "name": "owner",
      "outputs": [
        {
          "internalType": "address",
          "name": "",
          "type": "address"
        }
      ],
      "stateMutability": "view",
      "type": "function"
    },
    {
      "inputs": [
        {
          "internalType": "uint256",
          "name": "billId_",
          "type": "uint256"
        },
        {
          "internalType": "address",
          "name": "tokenAddress_",
          "type": "address"
        },
        {
          "internalType": "uint256",
          "name": "payment_",
          "type": "uint256"
        },
        {
          "internalType": "uint256",
          "name": "nonce_",
          "type": "uint256"
        },
        {
          "internalType": "uint256",
          "name": "sigExpireBlockNum_",
          "type": "uint256"
        },
        {
          "internalType": "bytes",
          "name": "sig_",
          "type": "bytes"
        }
      ],
      "name": "purchaseItems",
      "outputs": [],
      "stateMutability": "payable",
      "type": "function"
    },
    {
      "inputs": [],
      "name": "renounceOwnership",
      "outputs": [],
      "stateMutability": "nonpayable",
      "type": "function"
    },
    {
      "inputs": [
        {
          "internalType": "address",
          "name": "authedSigner_",
          "type": "address"
        }
      ],
      "name": "setAuthedSigner",
      "outputs": [],
      "stateMutability": "nonpayable",
      "type": "function"
    },
    {
      "inputs": [
        {
          "internalType": "address",
          "name": "newOwner",
          "type": "address"
        }
      ],
      "name": "transferOwnership",
      "outputs": [],
      "stateMutability": "nonpayable",
      "type": "function"
    },
    {
      "inputs": [
        {
          "internalType": "address",
          "name": "recipient_",
          "type": "address"
        },
        {
          "internalType": "address",
          "name": "tokenAddress_",
          "type": "address"
        },
        {
          "internalType": "uint256",
          "name": "amount_",
          "type": "uint256"
        }
      ],
      "name": "withdrawERC20",
      "outputs": [],
      "stateMutability": "nonpayable",
      "type": "function"
    },
    {
      "inputs": [
        {
          "internalType": "address",
          "name": "recipient_",
          "type": "address"
        },
        {
          "internalType": "uint256",
          "name": "amount_",
          "type": "uint256"
        }
      ],
      "name": "withdrawEther",
      "outputs": [],
      "stateMutability": "nonpayable",
      "type": "function"
    },
    {
      "stateMutability": "payable",
      "type": "receive"
    }
  ],
  "transactionHash": "0xfba81ddcc3058fb6c3370b7a63f14143acb742393c143f72d241898e799cb2c3",
  "args": [
    "0x7d14F396d347C960bC2774141D51DA59Be408F71"
  ],
  "numDeployments": 1,
  "solcInputHash": "60ac4b11846806cba9f5a2ef47f10c0c",
  "bytecode": "0x608060405234801561001057600080fd5b506040516110fe3803806110fe83398101604081905261002f91610112565b610038336100c2565b60408051808201909152601681527f44544b53746f72653a496e76616c69645369676e65720000000000000000000060208201526001600160a01b03821661009c5760405162461bcd60e51b81526004016100939190610142565b60405180910390fd5b50600180546001600160a01b0319166001600160a01b0392909216919091179055610190565b600080546001600160a01b038381166001600160a01b0319831681178455604051919092169283917f8be0079c531659141344cd1fd0a4f28419497f9722a3daafe3b4186f6b6457e09190a35050565b60006020828403121561012457600080fd5b81516001600160a01b038116811461013b57600080fd5b9392505050565b600060208083528351808285015260005b8181101561016f57858101830151858201604001528201610153565b506000604082860101526040601f19601f8301168501019250505092915050565b610f5f8061019f6000396000f3fe6080604052600436106100845760003560e01c8063715018a611610056578063715018a61461010057806382346bd7146101155780638da5cb5b1461014c578063e8b1a9b21461016a578063f2fde38b146101b557005b806329c223531461008d57806344004cc1146100a0578063522f6815146100c05780636b1604d4146100e057005b3661008b57005b005b61008b61009b366004610d0f565b6101d5565b3480156100ac57600080fd5b5061008b6100bb366004610df6565b61052d565b3480156100cc57600080fd5b5061008b6100db366004610e32565b610550565b3480156100ec57600080fd5b5061008b6100fb366004610e5c565b610603565b34801561010c57600080fd5b5061008b61062d565b34801561012157600080fd5b506001546001600160a01b03165b6040516001600160a01b0390911681526020015b60405180910390f35b34801561015857600080fd5b506000546001600160a01b031661012f565b34801561017657600080fd5b506101a5610185366004610e32565b600260209081526000928352604080842090915290825290205460ff1681565b6040519015158152602001610143565b3480156101c157600080fd5b5061008b6101d0366004610e5c565b610641565b336000818152600260209081526040808320878452825291829020548251808401909352601583527444544b53746f72653a496e76616c69644e6f6e636560581b9183019190915285919060ff161561024a5760405162461bcd60e51b81526004016102419190610ea2565b60405180910390fd5b5060015483906001600160a01b03163033604080517f70757263686173654974656d732875696e743235362c616464726573732c756960208201527f6e743235362c75696e743235362c75696e743235362c62797465732900000000918101919091526bffffffffffffffffffffffff19606093841b8116605c83015291831b82166070820152608481018d9052918b901b1660a482015260b8810189905260d8810188905260f88101879052610118016040516020818303038152906040528051906020012086826001600160a01b031661037d85610377856040517f19457468657265756d205369676e6564204d6573736167653a0a3332000000006020820152603c8101829052600090605c01604051602081830303815290604052805190602001209050919050565b906106ba565b6001600160a01b03161460405180604001604052806016815260200175222a25a9ba37b9329d24b73b30b634b229b4b3b732b960511b815250906103d45760405162461bcd60e51b81526004016102419190610ea2565b5060408051808201909152601981527f44544b53746f72653a5369676e6174757265457870697265640000000000000060208201524382101561042a5760405162461bcd60e51b81526004016102419190610ea2565b506001600160a01b038b1661049757893410156040518060400160405280601c81526020017f44544b53746f72653a496e73756666696369656e7442616c616e636500000000815250906104915760405162461bcd60e51b81526004016102419190610ea2565b506104af565b8a6104ad6001600160a01b03821633308e6106de565b505b8a6001600160a01b03168c7f839d47ee83977f0c25404c9bbe62bd0c6622344cab85a6922b5aa21aaf7b379d8c6040516104eb91815260200190565b60405180910390a35050506001600160a01b03909216600090815260026020908152604080832093835292905220805460ff1916600117905550505050505050565b610535610749565b8161054a6001600160a01b03821685846107a3565b50505050565b610558610749565b6000826001600160a01b03168260405160006040518083038185875af1925050503d80600081146105a5576040519150601f19603f3d011682016040523d82523d6000602084013e6105aa565b606091505b50509050806040518060400160405280601881526020017f44544b53746f72653a53656e6445746865724661696c656400000000000000008152509061054a5760405162461bcd60e51b81526004016102419190610ea2565b61060b610749565b600180546001600160a01b0319166001600160a01b0392909216919091179055565b610635610749565b61063f60006107d8565b565b610649610749565b6001600160a01b0381166106ae5760405162461bcd60e51b815260206004820152602660248201527f4f776e61626c653a206e6577206f776e657220697320746865207a65726f206160448201526564647265737360d01b6064820152608401610241565b6106b7816107d8565b50565b60008060006106c98585610828565b915091506106d68161086d565b509392505050565b6040516001600160a01b038085166024830152831660448201526064810182905261054a9085906323b872dd60e01b906084015b60408051601f198184030181529190526020810180516001600160e01b03166001600160e01b0319909316929092179091526109b7565b6000546001600160a01b0316331461063f5760405162461bcd60e51b815260206004820181905260248201527f4f776e61626c653a2063616c6c6572206973206e6f7420746865206f776e65726044820152606401610241565b6040516001600160a01b0383166024820152604481018290526107d390849063a9059cbb60e01b90606401610712565b505050565b600080546001600160a01b038381166001600160a01b0319831681178455604051919092169283917f8be0079c531659141344cd1fd0a4f28419497f9722a3daafe3b4186f6b6457e09190a35050565b600080825160410361085e5760208301516040840151606085015160001a61085287828585610a89565b94509450505050610866565b506000905060025b9250929050565b600081600481111561088157610881610ed5565b036108895750565b600181600481111561089d5761089d610ed5565b036108ea5760405162461bcd60e51b815260206004820152601860248201527f45434453413a20696e76616c6964207369676e617475726500000000000000006044820152606401610241565b60028160048111156108fe576108fe610ed5565b0361094b5760405162461bcd60e51b815260206004820152601f60248201527f45434453413a20696e76616c6964207369676e6174757265206c656e677468006044820152606401610241565b600381600481111561095f5761095f610ed5565b036106b75760405162461bcd60e51b815260206004820152602260248201527f45434453413a20696e76616c6964207369676e6174757265202773272076616c604482015261756560f01b6064820152608401610241565b6000610a0c826040518060400160405280602081526020017f5361666545524332303a206c6f772d6c6576656c2063616c6c206661696c6564815250856001600160a01b0316610b4d9092919063ffffffff16565b8051909150156107d35780806020019051810190610a2a9190610eeb565b6107d35760405162461bcd60e51b815260206004820152602a60248201527f5361666545524332303a204552433230206f7065726174696f6e20646964206e6044820152691bdd081cdd58d8d9595960b21b6064820152608401610241565b6000807f7fffffffffffffffffffffffffffffff5d576e7357a4501ddfe92f46681b20a0831115610ac05750600090506003610b44565b6040805160008082526020820180845289905260ff881692820192909252606081018690526080810185905260019060a0016020604051602081039080840390855afa158015610b14573d6000803e3d6000fd5b5050604051601f1901519150506001600160a01b038116610b3d57600060019250925050610b44565b9150600090505b94509492505050565b6060610b5c8484600085610b64565b949350505050565b606082471015610bc55760405162461bcd60e51b815260206004820152602660248201527f416464726573733a20696e73756666696369656e742062616c616e636520666f6044820152651c8818d85b1b60d21b6064820152608401610241565b600080866001600160a01b03168587604051610be19190610f0d565b60006040518083038185875af1925050503d8060008114610c1e576040519150601f19603f3d011682016040523d82523d6000602084013e610c23565b606091505b5091509150610c3487838387610c3f565b979650505050505050565b60608315610cae578251600003610ca7576001600160a01b0385163b610ca75760405162461bcd60e51b815260206004820152601d60248201527f416464726573733a2063616c6c20746f206e6f6e2d636f6e74726163740000006044820152606401610241565b5081610b5c565b610b5c8383815115610cc35781518083602001fd5b8060405162461bcd60e51b81526004016102419190610ea2565b80356001600160a01b0381168114610cf457600080fd5b919050565b634e487b7160e01b600052604160045260246000fd5b60008060008060008060c08789031215610d2857600080fd5b86359550610d3860208801610cdd565b945060408701359350606087013592506080870135915060a087013567ffffffffffffffff80821115610d6a57600080fd5b818901915089601f830112610d7e57600080fd5b813581811115610d9057610d90610cf9565b604051601f8201601f19908116603f01168101908382118183101715610db857610db8610cf9565b816040528281528c6020848701011115610dd157600080fd5b8260208601602083013760006020848301015280955050505050509295509295509295565b600080600060608486031215610e0b57600080fd5b610e1484610cdd565b9250610e2260208501610cdd565b9150604084013590509250925092565b60008060408385031215610e4557600080fd5b610e4e83610cdd565b946020939093013593505050565b600060208284031215610e6e57600080fd5b610e7782610cdd565b9392505050565b60005b83811015610e99578181015183820152602001610e81565b50506000910152565b6020815260008251806020840152610ec1816040850160208701610e7e565b601f01601f19169190910160400192915050565b634e487b7160e01b600052602160045260246000fd5b600060208284031215610efd57600080fd5b81518015158114610e7757600080fd5b60008251610f1f818460208701610e7e565b919091019291505056fea26469706673582212208c74cdb8659fa40cbc7c216e509c384be5abdb979c508f1dc9e7f9380e15fce164736f6c63430008130033",
  "devdoc": {
    "kind": "dev",
    "methods": {
      "authedSigner()": {
        "details": "[Metadata]: Get the authed signer address"
      },
      "constructor": {
        "params": {
          "authedSigner_": "The authorized signer to sign all the authed signature ! Requirements: ! Input authedSigner_ must not be an empty address * Operations: * Initialize the _authSigner variable"
        }
      },
      "owner()": {
        "details": "Returns the address of the current owner."
      },
      "purchaseItems(uint256,address,uint256,uint256,uint256,bytes)": {
        "details": "User purchase item with an authed signature with either base ether or erc20 token",
        "params": {
          "billId_": "The bill id which user would like to pay for",
          "nonce_": "The user nonce for the purchase",
          "payment_": "The payment amount the user need to pay",
          "sigExpireBlockNum_": "The block number where the signature will be expired if excced it",
          "sig_": "The authorized signature signed by _authedSigner ! Requirements: ! The user nonce must pass the validation of nonceGuard ! The signature must pass the validation of signatureGuard ! The msg.value must equal or greater than the payment value * Operations: * Emit a purchase item event",
          "tokenAddress_": "The token address which the user need to pay in, if address(0) means paying with base ether"
        }
      },
      "renounceOwnership()": {
        "details": "Leaves the contract without owner. It will not be possible to call `onlyOwner` functions anymore. Can only be called by the current owner. NOTE: Renouncing ownership will leave the contract without an owner, thereby removing any functionality that is only available to the owner."
      },
      "setAuthedSigner(address)": {
        "details": "[Metadata]: Set the authed signer ! Requirements: ! The caller must be the owner"
      },
      "transferOwnership(address)": {
        "details": "Transfers ownership of the contract to a new account (`newOwner`). Can only be called by the current owner."
      },
      "withdrawERC20(address,address,uint256)": {
        "details": "Withdraw base ether from the contract balance",
        "params": {
          "amount_": "The withdrawal amount ! Requirements: ! The caller must be the owner ! The the withdraw call must be success",
          "recipient_": "The recepient address where the ether would like to be withdrawed to"
        }
      },
      "withdrawEther(address,uint256)": {
        "details": "Withdraw base ether from the contract balance",
        "params": {
          "amount_": "The withdrawal amount ! Requirements: ! The caller must be the owner ! The the withdraw call must be success",
          "recipient_": "The recepient address where the ether would like to be withdrawed to"
        }
      }
    },
    "version": 1
  },
  "userdoc": {
    "kind": "user",
    "methods": {},
    "version": 1
  },
  "storageLayout": {
    "storage": [
      {
        "astId": 7,
        "contract": "contracts/DTKStore.sol:DTKStore",
        "label": "_owner",
        "offset": 0,
        "slot": "0",
        "type": "t_address"
      },
      {
        "astId": 3247,
        "contract": "contracts/DTKStore.sol:DTKStore",
        "label": "_authedSigner",
        "offset": 0,
        "slot": "1",
        "type": "t_address"
      },
      {
        "astId": 3253,
        "contract": "contracts/DTKStore.sol:DTKStore",
        "label": "nonce",
        "offset": 0,
        "slot": "2",
        "type": "t_mapping(t_address,t_mapping(t_uint256,t_bool))"
      }
    ],
    "types": {
      "t_address": {
        "encoding": "inplace",
        "label": "address",
        "numberOfBytes": "20"
      },
      "t_bool": {
        "encoding": "inplace",
        "label": "bool",
        "numberOfBytes": "1"
      },
      "t_mapping(t_address,t_mapping(t_uint256,t_bool))": {
        "encoding": "mapping",
        "key": "t_address",
        "label": "mapping(address => mapping(uint256 => bool))",
        "numberOfBytes": "32",
        "value": "t_mapping(t_uint256,t_bool)"
      },
      "t_mapping(t_uint256,t_bool)": {
        "encoding": "mapping",
        "key": "t_uint256",
        "label": "mapping(uint256 => bool)",
        "numberOfBytes": "32",
        "value": "t_bool"
      },
      "t_uint256": {
        "encoding": "inplace",
        "label": "uint256",
        "numberOfBytes": "32"
      }
    }
  }
}